:1000000026C04AC049C048C047C046C087C444C093
:1000100043C042C041C038C43FC03EC03DC09BC584
:10002000E3C4003A37003B3800000000000403023C
:1000300001000000010204081020408004020108B1
:10004000010101010101010102020202D50711248F
:100050001FBECFE5D2E0DEBFCDBF10E0A0E6B0E02E
:10006000E0E3F0E102C005900D92AA37B107D9F79D
:1000700020E0AAE7B0E001C01D92AF3CB207E1F773
:1000800010E0C7E2D0E003C02197FE01C9D7C63215
:10009000D107D1F7A7D5CAC7B3CF8091CE008823A7
:1000A00039F02091CD0082131CC08FEF9FEF08958F
:1000B0009091CC008091CB00891B8F70B1F390910F
:1000C000CC008091CB009817E1F3E091CC00EF5F7A
:1000D000EF70E093CC00F0E0E658FF4F808190E0B5
:1000E0000895E22FF0E0E658FF4F808190E02F5F07
:1000F0002093CD000895DF92EF92FF920F931F930C
:10010000CF93DF938C01C9DF80939A00D12C7801C3
:1001100081E0E81AF108CD2DD0E0CE15DF0584F599
:10012000BCDF20919A002C0F3D2F311D2B30310563
:1001300028F5A0919A00E0919A00EC0FFD2FF11D97
:10014000E259FF4FAC0FBD2FB11DA05ABF4F9C917C
:10015000909520819223908390919A00E0919A004B
:10016000EC0FFD2FF11DE259FF4FC90FD11DC05AF1
:10017000DF4F988198238081892B8083D394CBCFC4
:10018000023011051CF081E080936C00DF91CF916B
:100190001F910F91FF90EF90DF900895809178006C
:1001A00098EF980F903708F084E380937800D49804
:1001B000D6981DB890EF9EB9D498D698DE98DC9862
:1001C0001092CD001092CE001092CA001092CC0076
:1001D0001092CB001092C4001092C3008093C9000B
:1001E0001092C8001092C7001092C6001092C5006D
:1001F000DC9ADE9AD49AD69888EA8DB99EB98BE7B4
:1002000090E09093C6008093C50086E891E09093BB
:10021000C8008093C70008953FB7F8948091A0006C
:100220009091A100A091A200B091A30022B708B6BE
:1002300000FE05C02F3F19F00196A11DB11D3FBF63
:10024000BA2FA92F982F8827BC01CD01620F711DED
:10025000811D911D43E0660F771F881F991F4A95E6
:10026000D1F70895CF92DF92EF92FF92CF93DF9371
:100270006B017C01D1DFEB01CFDF6C1B7D0B683E96
:100280007340A0F0C114D104E104F10439F4DF910A
:10029000CF91FF90EF90DF90CF90089581E0C81A42
:1002A000D108E108F108C851DC4FE6CFC114D104F0
:1002B000E104F10409F7EBCF90916D009F3F29F124
:1002C000981711F08F3F09F58CB1887D8CB91EBC51
:1002D0001FBC1DBC1CBC1BBC1ABC19BC18BC1CB868
:1002E00087E28BB981E08FBD8BE08EBDE091A900E4
:1002F000F091AA00309731F08091A800908180950C
:10030000892380838FEF80936D000895CF93DF93CF
:1003100080919A006BE070E0681B710920919A004F
:1003200030E0D091CA004091CE009091CD00D9012B
:10033000A259BF4FFD01E21BF30BEE56F040E6174A
:10034000F70728F5CD91DD2351F0403298F7E92FDA
:10035000F0E0E658FF4FC0839F5F492FEBCF5091ED
:10036000C3008091C4005F5F851B8F7019F380917B
:10037000C3008F5F8F705091C4008517E1F3E82FA1
:10038000F0E0E657FF4FC0838093C300D3CF909334
:10039000CD004093CE00DF91CF9108950F931F932E
:1003A000CF93DF938C01EB0103D68883C8010196BC
:1003B000FFD58983CE01DF91CF911F910F910895D1
:1003C000CF93DF93EB01F4D58883CE01DF91CF91FA
:1003D000089589B385FB882780F9089587FF04C0B5
:1003E0008F77883008F08FEF282F30E0F901E85D33
:1003F000FF4F94918C3058F4F901EC5CFF4F8491DD
:10040000F901E05CFF4FE491EF3F19F408958FEF9D
:10041000E0E0992329F0913099F490B79F7790BF4D
:10042000F0E0EB5DFF4FA491B0E09FB7611118C001
:10043000F8942C91E82FE095E223EC939FBF089568
:10044000923019F490B79F7DEACF933021F49FB595
:100450009F779FBDE5CF943019F79FB59F7DF9CF6A
:10046000F894EC91E82BE9CFCF93DF93C3EBD0E086
:100470008F8522DF60E08A85B1DF60E08B85AEDFAB
:1004800060E08C85ABDF60E08D85A8DF10927600A0
:1004900060E08E85A3DF1986DF91CF910895CF9319
:1004A000DF9387FF06C08F77883028F0DF91CF91E8
:1004B00008958C30D8F790E0FC01EC5CFF4F24915C
:1004C000805C9F4FFC018491882381F390E0FC01C4
:1004D000EE5DFF4FE491CE2FD0E08B5D9F4FFC018E
:1004E0008491623071F4A82FB0E09FB7F8943881FE
:1004F000822F809583238883EC91E22BEC939FBF1E
:10050000D5CF8FB7F894E881E22BE8838FBFCECFA9
:10051000CF92DF92EF92FF92CF93DF93809173009F
:100520009091B300891709F4B0C08093B30081E0C3
:100530002091710030917200322723273227409199
:10054000B4005091B5004217530729F03093B5001D
:100550002093B40081E0209174003091750032271F
:10056000232732274091B6005091B7004217530716
:1005700029F03093B7002093B60081E0D091760047
:10058000D13009F0B4C09091BC00992319F08823B0
:1005900009F43EC18091B6009091B700892B99F083
:1005A0002FB7F8948091AF009091B000A091B10066
:1005B000B091B2002FBF8093B8009093B900A09380
:1005C000BA00B093BB00C090B400D090B500C09109
:1005D000C200C114D10409F471C0F12CE12C409186
:1005E0006D004C130EC08091AB009091AC00A091B7
:1005F000AD00B091AE00C816D906EA06FB0609F4B4
:10060000DCC0C092AB00D092AC00E092AD00F092A2
:10061000AE004F3F09F08EC01EBC1FBC1DBC1CBCF1
:100620001BBC1ABC19BC18BC8CB1887D8CB98BB1B1
:1006300087628BB988E08EBD2C2F30E0F901E85D30
:10064000FF4F8491833009F460C08491843009F4B1
:100650005CC0F0E0E0E0CC3028F4F901E05CFF4F52
:10066000E491F0E0EB5DFF4F849190E09093AA005D
:100670008093A900CC3020F4F901EC5CFF4F449149
:100680004093A8008FB58F7009C080E051CFE33050
:1006900039F48FB58F778FBD8FB580648FBD45C01E
:1006A000E23031F480B78F7D80BF80B780613CC07D
:1006B0008FB58F7D8FBD8FB58061F0CF8C2FFCDD26
:1006C00076C0833081F0843009F091C061E0809180
:1006D000BD0003C061E08091C00080DE88C061E0A1
:1006E0008091BF00FACF61E08091BE00F6CFD111BA
:1006F0008FC08091BC00882309F48AC0DF91CF911C
:10070000FF90EF90DF90CF90AFCE1092AA001092A2
:10071000A9001092A800E491E13009F0B8CF80B7A9
:100720008F7780BF80B7806480BF61E08C2FB7DE99
:10073000C0936D0080916D00C81339C08EB5887F5D
:100740008EBD1DBC1CBC60E079E08DE390E0A7018C
:10075000960144D42115310581E04807510540F048
:1007600086E056954795379527958A95D1F7D3E03A
:1007700021503109410951093BBD2ABD8FEF9FEF3F
:10078000DC018093A4009093A500A093A600B093F1
:10079000A700EC2FF0E0E85DFF4F8491833021F05B
:1007A000E491E43009F0619A8EB5D82BDEBD8091DA
:1007B000B4009091B500892BD1F060E08091BD002C
:1007C0000DDE60E08091BE0009DE60E08091BF0038
:1007D00005DE60E08091C00001DE8091B3008230D0
:1007E00009F47DCF08F06DCF813009F473CF80918B
:1007F000B300882351F08091B4009091B500892B0B
:1008000021F061E08091C100E9DD81E08093BC00CE
:10081000DF91CF91FF90EF90DF90CF900895FF92FE
:100820000F931F93CF93DF938C01EB01F880C0D31C
:10083000F81619F06F2DC801C3D3CE01DF91CF9107
:100840001F910F91FF900895FF920F931F93CF93E5
:10085000DF93EC018B01FB01F080AAD3F81619F0AD
:100860006F2DCE01ADD3F801F1802196CE01A0D33A
:10087000F81619F06F2DCE01A3D3C801DF91CF91E7
:100880001F910F91FF9008951F920F920FB60F9234
:1008900011242F933F938F939F93AF93BF93809196
:1008A000AF009091B000A091B100B091B200309132
:1008B0009F0026E0230F2D3768F129E8230F0396C8
:1008C000A11DB11D20939F008093AF009093B000B5
:1008D000A093B100B093B2008091A0009091A100CC
:1008E000A091A200B091A3000196A11DB11D80931B
:1008F000A0009093A100A093A200B093A300BF9189
:10090000AF919F918F913F912F910F900FBE0F90BC
:100910001F9018950296A11DB11DD4CF1F920F9262
:100920000FB60F9211242F933F934F935F936F93C2
:100930007F938F939F93AF93BF93EF93FF93809198
:10094000A4009091A500A091A600B091A700892BCA
:100950008A2B8B2B61F18091A4009091A500A0912E
:10096000A600B091A700181619061A061B0694F5E2
:100970008091A4009091A500A091A600B091A7003D
:100980000197A109B1098093A4009093A500A093B9
:10099000A600B093A7008091A4009091A500A0911B
:1009A000A600B091A700892B8A2B8B2B99F48FEF8F
:1009B00083DCFF91EF91BF91AF919F918F917F91D8
:1009C0006F915F914F913F912F910F900FBE0F90BC
:1009D0001F9018959091A800E091A900F091AA00AD
:1009E000808189278083E5CF1F920F920FB60F92E7
:1009F00011242F933F934F935F936F937F938F9324
:100A00009F93AF93BF93CF93EF93FF9380919B00FE
:100A1000823009F474C0B8F4882389F1813009F474
:100A200054C0FF91EF91CF91BF91AF919F918F9162
:100A30007F916F915F914F913F912F910F900FBEDA
:100A40000F901F901895843009F45FC0B8F185307D
:100A500041F784E080939B009FB18091CB008F5F32
:100A60008F702091CC00281709F473C08093CB00BD
:100A7000E091CB00F0E0E658FF4F908319C08FB1B2
:100A8000882331F08FB186959091C900891319C0E0
:100A9000789B12C0E091C700F091C800309729F010
:100AA0008091C3008093C400099581E080939B00EE
:100AB0001FB8D69A8EE721C084E0F8CF8FB1882383
:100AC00021F0D69888EA8DB917C08091C400909122
:100AD000C3009817B1F38091C4008F5F8F7080932B
:100AE000C400E091C400F0E0E657FF4F80818FB969
:100AF00082E080939B00D69A80E78EB992CF83E004
:100B000080939B00D6981FB8D5CF85E080939B003B
:100B1000D69880E78EB9E091C500F091C600309775
:100B200009F47FCFC091CB008091CC008C1709F4E1
:100B300078CF8EB18E7AE9F3759B73CF9091CC000C
:100B40008091CB00891B8F7090E00995C093CC00F9
:100B500068CFD698AFCF1F920F920FB60F92112485
:100B60002F933F934F935F936F937F938F939F93B5
:100B7000AF93BF93CF93EF93FF93E091C500F091B4
:100B8000C600309781F0C091CB008091CC008C17CB
:100B900051F09091CC008091CB00891B8F7090E038
:100BA0000995C093CC0010929B00D698CC9B18C09E
:100BB000CE9BFCCF88EA8DB980EF8EB9FF91EF9183
:100BC000CF91BF91AF919F918F917F916F915F91E5
:100BD0004F913F912F910F900FBE0F901F9018953E
:100BE00088EFE9CFCF93DF9300D000D000D0CDB70E
:100BF000DEB71E828E8185BB81E2E1E0F0E080936A
:100C00005700849181BF000083E080BF83BF789448
:100C100089B7816089BF81E08FBD9BE09EBD96E86A
:100C200096B999E09093BD009AE09093BE008093AE
:100C3000BF0082E08093C0001092C10087E08093E3
:100C4000C20061E089E02BDC61E08091BE0027DC1E
:100C500061E08091BF0023DC61E08091C0001FDC77
:100C600060E08091BD00BADB60E08091BE00B6DB41
:100C700060E08091BF00B2DB60E08091C000AEDB3D
:100C800061E08091C1000BDC60E08091C100A6DBD7
:100C900061E08091C20003DC60E08091C2009EDBD5
:100CA00062E085E0FCDB09EE13E093DB811145C0D7
:100CB00061E070E080E090E0D5DA01501109A9F719
:100CC000EE24EA94F12CFA82E982BE016F5F7F4F35
:100CD00090E080E0B9DD0FEF1FEF1A830983BE01BA
:100CE0006F5F7F4F81E090E0AFDDFA82E982BE0165
:100CF0006F5F7F4F83E090E0A7DD1A830983BE0119
:100D00006F5F7F4F84E090E09FDD03E010E061E0E3
:100D100080E064DB64E670E080E090E0A3DA60E00D
:100D200080E05CDB64E670E080E090E09BDA0150FC
:100D3000110969F74EDB8823E9F316B884E885BF0B
:100D400080E885BF85B7877E85BF85B7806285BF10
:100D500068E770E090E080E033DB809178008F3FBF
:100D600041F484E38093780068E770E090E080E0ED
:100D700056DD809178008850803740F084E380937E
:100D8000780068E770E090E080E049DD1C821B821B
:100D9000BE016D5F7F4F81E090E000DB8B819C8125
:100DA000019651F48AEA9AE09C838B83BE016D5FC1
:100DB0007F4F81E090E048DD8B819C8190937100B2
:100DC000809372001A821982BE016F5F7F4F84E0A8
:100DD00090E0E4DA89819A81019641F41A821982BD
:100DE000BE016F5F7F4F84E090E02EDD89819A81A4
:100DF000909374008093750063E770E083E090E067
:100E0000DFDA809173008F3F41F484E080937300B8
:100E100063E770E083E090E002DD7ADBBFD9809188
:100E2000780080939E0011E08091780090919E0060
:100E3000891380939E008091BC00882359F1809192
:100E40007500811104C080917400882319F18FB757
:100E5000F8944091AF005091B0006091B100709152
:100E6000B2008FBF8091B8009091B900A091BA00F4
:100E7000B091BB00481B590B6A0B7B0B8091B600ED
:100E80009091B700B0E0A0E0481759076A077B07C8
:100E900008F0EADA80916C00813009F045C0809159
:100EA00078008850BE016B5F7F4F90E0803708F07C
:100EB0005BC080E085DA809178009D81891741F0E0
:100EC0008983BE016F5F7F4F90E080E0A8DC66D928
:100ED00080917700813029F58091710090917200A6
:100EE0009827892798279C838B83BE016D5F7F4F4E
:100EF00081E090E0A9DC80917400909175009827C2
:100F0000892798279A838983BE016F5F7F4F84E08A
:100F100090E09ADC63E770E083E090E080DC109280
:100F20007700F6DA10926C0054DA90916B00811120
:100F300021C0911129C04DDA082F8130E9F4809148
:100F40009C008F5F80939C008B30B0F08091B60046
:100F50009091B700892B19F487DA00936C001092F6
:100F60009C0010936B0008C080E02ADA8D8180938A
:100F70007800AECF9923F9F285B7806285BF889556
:100F800085B78F7D85BF50CF80919D008F5F809307
:100F90009D008B3088F368DA1093760010936C0014
:100FA00010929D0010926B00E7CF1092BC00089544
:100FB000E199FECF9FBB8EBBE09A99278DB3089530
:100FC000262FE199FECF1CBA9FBB8EBB2DBB0FB65F
:100FD000F894E29AE19A0FBE01960895A1E21A2EC2
:100FE000AA1BBB1BFD010DC0AA1FBB1FEE1FFF1FCD
:100FF000A217B307E407F50720F0A21BB30BE40B1D
:10100000F50B661F771F881F991F1A9469F7609563
:101010007095809590959B01AC01BD01CF0108951D
:10102000EE0FFF1F0590F491E02D0994F894FFCF87
:10103000000000FFFF07FFFF0101FF0101FF5E004D
:0A10400001000000000000000000A5
:00000001FF
