:1000000025C03FC03EC03DC03CC03BC084C439C0D9
:1000100038C037C036C035C434C033C032C098C5CC
:10002000E0C4003A370102040810204080040201B5
:1000300008003B3801010101010101010202020235
:1000400000000000000403020100000011241FBE94
:10005000CFE5D2E0DEBFCDBF10E0A0E6B0E0E2E346
:10006000FFE002C005900D92A838B107D9F720E053
:10007000A8E8B0E001C01D92AB3CB207E1F7AFD5F4
:1000800056C7BECF8091CA00882339F02091C9009D
:1000900082131CC08FEF9FEF08959091C80080914C
:1000A000C700891B8F70B1F39091C8008091C70081
:1000B0009817E1F3E091C800EF5FEF70E093C8009C
:1000C000F0E0E857FF4F808190E00895E22FF0E0E4
:1000D000E857FF4F808190E02F5F2093C90008957B
:1000E000FF920F931F93CF93DF938C01CBDF80930D
:1000F000A800F12C01501109CF2DD0E0C017D10775
:1001000084F5C0DF2091A8002C0F3D2F311D2B302E
:10011000310528F5A091A800E091A800EC0FFD2F73
:10012000F11DE359FF4FAC0FBD2FB11DA05ABF4FBA
:100130009C9190952081922390839091A800E091CA
:10014000A800EC0FFD2FF11DE359FF4FC90FD11D82
:10015000C05ADF4F988198238081892B8083F39444
:10016000CBCF81E080936B00DF91CF911F910F91F6
:10017000FF9008958091770098EF980F903708F0DE
:1001800084E380937700D498D6981DB890EF9EB9F9
:10019000D498D698DE98DC981092C9001092CA00C4
:1001A0001092B7001092C8001092C7001092B100D0
:1001B0001092B0008093B6001092B5001092B40077
:1001C0001092B3001092B200DC9ADE9AD49AD698BC
:1001D00088EA8DB99EB980E790E09093B300809350
:1001E000B20088E491E09093B5008093B400089544
:1001F0003FB7F8948091AC009091AD00A091AE0013
:10020000B091AF0022B708B600FE05C02F3F19F02D
:100210000196A11DB11D3FBFBA2FA92F982F882786
:10022000BC01CD01620F711D811D911D43E0660F60
:10023000771F881F991F4A95D1F7089590916C00F8
:100240009F3F29F1981711F08F3F09F58CB1887DF8
:100250008CB91EBC1FBC1DBC1CBC1BBC1ABC19BC71
:1002600018BC1CB887E28BB981E08FBD8BE08EBDD6
:10027000E091C100F091C200309731F08091C00050
:1002800090818095892380838FEF80936C000895FF
:10029000CF93DF938091A8006BE070E0681B710939
:1002A0002091A80030E0D091B7004091CA00909111
:1002B000C900D901A359BF4FFD01E21BF30BED5655
:1002C000F040E617F70728F5CD91DD2351F04032D5
:1002D00098F7E92FF0E0E857FF4FC0839F5F492F61
:1002E000EBCF5091B0008091B1005F5F851B8F70A4
:1002F00019F38091B0008F5F8F705091B100851716
:10030000E1F3E82FF0E0E856FF4FC0838093B000A0
:10031000D3CF9093C9004093CA00DF91CF91089545
:1003200089B385FB882780F9089587FF04C08F77FC
:10033000883008F08FEF282F30E0F901E05CFF4FA4
:1003400094918C3058F4F901EB5DFF4F8491F901E1
:10035000EC5CFF4FE491EF3F19F408958FEFE0E07C
:10036000992329F0913099F490B79F7790BFF0E0EE
:10037000EF5CFF4FA491B0E09FB7611118C0F894F3
:100380002C91E82FE095E223EC939FBF08959230E3
:1003900019F490B79F7DEACF933021F49FB59F77F2
:1003A0009FBDE5CF943019F79FB59F7DF9CFF894A5
:1003B000EC91E82BE9CFCF93DF9387FF06C08F77CF
:1003C000883028F0DF91CF9108958C30D8F7A82F8E
:1003D000B0E0FD01EB5DFF4F8491AC5CBF4FFD01D0
:1003E000A491AA2379F3B0E0FD01EE5DFF4FE49103
:1003F000CE2FD0E0AF5CBF4FFD01A491B0E0611102
:100400000DC02FB7F8949881E82FE095892F8E239F
:1004100088838C91E823EC932FBFD4CF623051F4C2
:100420002FB7F8943881982F909593239883EC9167
:10043000E82BF1CF9FB7F894E881E82BE8839FBFC2
:10044000C1CFCF93DF9387E0F9DEC8E7D0E060E06B
:100450008A856BDF60E08B8568DF60E08C8565DF17
:1004600060E08D8562DF1092750060E08E855DDF53
:1004700060E08E85A0DF1986DF91CF9108958F927D
:100480009F92AF92BF92CF92DF92EF92FF92CF9363
:10049000E0916C00E73099F4C090C300D090C400A4
:1004A000E090C500F090C600C616D706E806F9062B
:1004B00031F4211531054105510509F475C0690173
:1004C0007A014B015C018092C3009092C400A0921B
:1004D000C500B092C600EF3F11F51EBC1FBC1DBC8D
:1004E0001CBC1BBC1ABC19BC18BC8CB1887D8CB957
:1004F0008BB187628BB988E08EBD8BE390E09093DF
:10050000C2008093C10080E88093C0008FB58F70D7
:100510008FBD61E087E04FDF87E080936C008091C2
:100520006C00873009F040C08EB5887F8EBD1DBC41
:100530001CBC60E079E08DE390E0A5019401D5D486
:10054000C1E02115310581E04807510540F066E022
:1005500056954795379527956A95D1F7C3E0215071
:100560003109410951093BBD2ABDC114D104E1043F
:10057000F10421F1C701B601660F771F881F991F8B
:10058000A501940199D428EE33E040E050E0ADD4C9
:100590002093BC003093BD004093BE005093BF0039
:1005A000619A8EB58C2B8EBDCF91FF90EF90DF902E
:1005B000CF90BF90AF909F908F9008958FEF9FEF57
:1005C000DC018093BC009093BD00A093BE00B0936B
:1005D000BF00E6CF509172008091780020917000AA
:1005E00090917100322F292F6091790070917A00DB
:1005F00041E02617370719F4581301C040E08091F5
:1006000073009091740089279827892768177907C4
:1006100011F4442351F05093780030937A002093E2
:10062000790090937C0080937B00809175008130ED
:1006300009F073C080918100811191C020917B00ED
:1006400030917C006091790070917A00211531051C
:1006500009F444C06115710529F050E040E090E0D4
:1006600080E00DDF2FB7F8948091B8009091B90029
:10067000A091BA00B091BB002FBF80937D009093F2
:100680007E00A0937F00B0938000809179009091CC
:100690007A00892BB9F060E08091820046DE60E04C
:1006A0008091830042DE60E0809184003EDE60E065
:1006B000809185003ADE80917800823031F1C0F47B
:1006C0008130F1F061E08091860075DE61E080911B
:1006D00086002BDE81E0809381000895611571050D
:1006E000A1F290E080E020E030E0A901C8DECDCFAB
:1006F000833079F0843031F761E08091820003C06B
:1007000061E08091850011DEDDCF61E080918400A1
:10071000FACF61E080918300F6CF811120C08091F3
:1007200081008130E1F487E089DD60E08091820022
:10073000FCDD60E080918300F8DD60E08091840062
:10074000F4DD60E080918500F0DD60E0809186005E
:10075000ECDD60E0809186002EDE1092810008952D
:100760008FB7F8944091B8005091B9006091BA00E9
:100770007091BB008FBF80917D0090917E00A09111
:100780007F00B0918000481B590B6A0B7B0B809156
:100790007B0090917C00B0E0A0E084179507A6074D
:1007A000B707F0F487E04ADD60E080918200BDDDAC
:1007B00060E080918300B9DD60E080918400B5DD68
:1007C00060E080918500B1DD1092750060E080915D
:1007D0008600ABDD60E080918600EDDD1092810047
:1007E0000895FF920F931F93CF93DF938C01EB013A
:1007F000F8804CD3F81619F06F2DC8014FD3CE01F5
:10080000DF91CF911F910F91FF900895FF920F9369
:100810001F93CF93DF93EC018B01FB01F08036D364
:10082000F81619F06F2DCE0139D3F801F180219619
:10083000CE012CD3F81619F06F2DCE012FD3C8019D
:10084000DF91CF911F910F91FF9008950F931F9308
:10085000CF93DF938C01EB0119D38883C8010196F4
:1008600015D38983CE01DF91CF911F910F91089508
:10087000CF93DF93EB010AD38883CE01DF91CF9131
:1008800008951F920F920FB60F9211242F933F934A
:100890008F939F93AF93BF938091B8009091B900CD
:1008A000A091BA00B091BB003091AB0026E0230FBD
:1008B0002D3768F129E8230F0396A11DB11D209360
:1008C000AB008093B8009093B900A093BA00B093A6
:1008D000BB008091AC009091AD00A091AE00B091B2
:1008E000AF000196A11DB11D8093AC009093AD00A7
:1008F000A093AE00B093AF00BF91AF919F918F9145
:100900003F912F910F900FBE0F901F901895029658
:10091000A11DB11DD4CF1F920F920FB60F921124BB
:100920002F933F934F935F936F937F938F939F93F7
:10093000AF93BF93EF93FF938091BC009091BD0064
:10094000A091BE00B091BF00892B8A2B8B2B61F147
:100950008091BC009091BD00A091BE00B091BF00FD
:10096000181619061A061B0694F58091BC00909182
:10097000BD00A091BE00B091BF000197A109B109CF
:100980008093BC009093BD00A093BE00B093BF00C5
:100990008091BC009091BD00A091BE00B091BF00BD
:1009A000892B8A2B8B2B99F48FEF48DCFF91EF91E9
:1009B000BF91AF919F918F917F916F915F914F9177
:1009C0003F912F910F900FBE0F901F90189590910F
:1009D000C000E091C100F091C2008081892780832E
:1009E000E5CF1F920F920FB60F9211242F933F93D2
:1009F0004F935F936F937F938F939F93AF93BF9327
:100A0000CF93EF93FF938091A900823009F474C0D3
:100A1000B8F4882389F1813009F454C0FF91EF9133
:100A2000CF91BF91AF919F918F917F916F915F9186
:100A30004F913F912F910F900FBE0F901F901895DF
:100A4000843009F45FC0B8F1853041F784E08093C9
:100A5000A9009FB18091C7008F5F8F702091C8005F
:100A6000281709F473C08093C700E091C700F0E035
:100A7000E857FF4F908319C08FB1882331F08FB1B1
:100A800086959091B600891319C0789B12C0E091A9
:100A9000B400F091B500309729F08091B0008093B8
:100AA000B100099581E08093A9001FB8D69A8EE71E
:100AB00021C084E0F8CF8FB1882321F0D69888EA4E
:100AC0008DB917C08091B1009091B0009817B1F323
:100AD0008091B1008F5F8F708093B100E091B10081
:100AE000F0E0E856FF4F80818FB982E08093A90043
:100AF000D69A80E78EB992CF83E08093A900D698EA
:100B00001FB8D5CF85E08093A900D69880E78EB92D
:100B1000E091B200F091B300309709F47FCFC0911B
:100B2000C7008091C8008C1709F478CF8EB18E7AF7
:100B3000E9F3759B73CF9091C8008091C700891B22
:100B40008F7090E00995C093C80068CFD698AFCF5A
:100B50001F920F920FB60F9211242F933F934F9332
:100B60005F936F937F938F939F93AF93BF93CF9335
:100B7000EF93FF93E091B200F091B300309781F0D2
:100B8000C091C7008091C8008C1751F09091C800A7
:100B90008091C700891B8F7090E00995C093C800B1
:100BA0001092A900D698CC9B18C0CE9BFCCF88EAA7
:100BB0008DB980EF8EB9FF91EF91CF91BF91AF9139
:100BC0009F918F917F916F915F914F913F912F9165
:100BD0000F900FBE0F901F90189588EFE9CFCF931D
:100BE000DF9300D000D000D0CDB7DEB71E828E815B
:100BF00085BB81E2E1E0F0E080935700849181BF02
:100C0000000083E080BF83BF789489B7816089BF8B
:100C100081E08FBD9BE09EBD96E896B999E09093E8
:100C200082009AE0909383008093840082E0809316
:100C3000850061E089E0BFDB61E080918300BBDB80
:100C400061E080918400B7DB61E080918500B3DBD7
:100C500060E08091820069DB60E08091830065DB69
:100C600060E08091840061DB60E0809185005DDB65
:100C700061E087E0A0DB62E085E09DDB16B884E8F8
:100C800085BF80E885BF85B7877E85BF85B78062D1
:100C900085BF67E770E090E080E0EADD8091770053
:100CA0008F3F41F484E38093770067E770E090E042
:100CB00080E097DD809177008850803740F084E3B2
:100CC0008093770067E770E090E080E08ADD1C8227
:100CD0001B82BE016D5F7F4F81E090E0B7DD8B81AD
:100CE0009C81019651F48AEA9AE09C838B83BE0131
:100CF0006D5F7F4F81E090E089DD8B819C819093D7
:100D00007000809371002091740089819A81822BF8
:100D100020917300922B9A838983BE016F5F7F4F6E
:100D200084E090E093DD89819A81019641F41A82F2
:100D30001982BE016F5F7F4F84E090E067DD62E75C
:100D400070E083E090E094DD809172008F3F39F491
:100D50001092720062E770E083E090E042DD3ADCDE
:100D600009DA809177008093AA0060E080E0DDDA04
:100D700011E0809177009091AA0089138093AA00D6
:100D800080918100813041F480917400811103C011
:100D9000809173008111E4DC80916B00813009F057
:100DA00046C0809177008850BE016B5F7F4F90E016
:100DB000803708F05CC080E05BDD809177009D812A
:100DC000891741F08983BE016F5F7F4F90E080E01B
:100DD00008DDD0D980917600813031F580917000A6
:100DE000909171008927982789279C838B83BE0166
:100DF0006D5F7F4F81E090E009DD20917400898173
:100E00009A81822B20917300922B9A838983BE0151
:100E10006F5F7F4F84E090E0F9DC62E770E083E091
:100E200090E0DFDC10927600D5DB10926B0078DA70
:100E3000811124C006DB10937500CCDB71DA8111BF
:100E40001CC080918100813041F480917400811137
:100E500003C080917300811183DCCAD97B01C8D99A
:100E60006E197F09683E7340D0F3C2D9E7CF80E0A6
:100E7000FFDC8D8180937700ADCFE3DA85B78062A8
:100E800085BF889585B78F7D85BF73CFE199FECFEC
:100E90009FBB8EBBE09A99278DB30895262FE199C9
:100EA000FECF1CBA9FBB8EBB2DBB0FB6F894E29A47
:100EB000E19A0FBE01960895EE27FF27AA27BB27C8
:100EC00008C0A20FB31FE41FF51F220F331F441FDA
:100ED000551F969587957795679598F37040A9F774
:100EE000009799F7BD01CF010895A1E21A2EAA1B20
:100EF000BB1BFD010DC0AA1FBB1FEE1FFF1FA217CA
:100F0000B307E407F50720F0A21BB30BE40BF50BC6
:100F1000661F771F881F991F1A9469F7609570954F
:100F2000809590959B01AC01BD01CF010895F89487
:020F3000FFCFF1
:100F3200000000FFFFFFFFFFFFFFFF01FF5D030156
:100F42000AAA00000000003403AA0A000000000000
:080F5200000000000000000097
:00000001FF
